:020000040000FA
:100000000C9462000C948A000C948A000C948A0070
:100010000C948A000C948A000C948A000C948A0038
:100020000C948A000C948A000C948A000C948A0028
:100030000C948A000C948A000C948A000C948A0018
:100040000C9452040C948A000C948A000C948A003C
:100050000C948A000C948A000C948A000C948A00F8
:100060000C948A000C948A000000000023002600F3
:10007000290000000008000201000003040700003E
:1000800000000000000000000000250028002B00F8
:1000900000000000240027002A00040404040404D3
:1000A0000404020202020202030303030303010227
:1000B00004081020408001020408102001020408F6
:1000C0001020060711241FBECFEFD8E0DEBFCDBF42
:1000D00012E0A0E0B1E0EEE7F3E102C005900D927E
:1000E000AC30B107D9F722E0ACE0B2E001C01D921C
:1000F000AD32B207E1F710E0C2E6D0E004C02197CC
:10010000FE010E94B709C136D107C9F70E949C04BD
:100110000C94BD090C94000090E0FC01E255FF4FE7
:10012000249186569F4FFC018491882399F090E09A
:10013000880F991FFC01E057FF4FA591B491FC0176
:10014000EA57FF4F859194918FB7F894EC91E22B89
:10015000EC938FBF0895833081F028F4813099F0BB
:100160008230A9F008958730A9F08830C9F0843032
:10017000B1F4809180008F7D03C0809180008F77E3
:1001800080938000089584B58F7784BD089584B5E9
:100190008F7DFBCF8091B0008F778093B000089562
:1001A0008091B0008F7DF9CFCF93DF93282F30E07F
:1001B000F901EE58FF4F8491F901E255FF4FD491B8
:1001C000F901E656FF4FC491CC23A1F081110E94A2
:1001D000AB00EC2FF0E0EE0FFF1FE859FF4FA591A9
:1001E000B491EC91ED2381E090E009F480E0DF919F
:1001F000CF91089580E090E0FACF1F93CF93DF93E3
:10020000282F30E0F901EE58FF4F8491F901E255B3
:10021000FF4FD491F901E656FF4FC491CC23A9F0CA
:10022000162F81110E94AB00EC2FF0E0EE0FFF1FA4
:10023000EA57FF4FA591B4918FB7F894EC91111143
:1002400008C0D095DE23DC938FBFDF91CF911F9143
:100250000895DE2BF8CF8E50806480937C008091CF
:100260007A00806480937A0080917A0086FDFCCFCA
:10027000809178009091790008953FB7F89480912B
:10028000110290911202A0911302B091140226B5AE
:10029000A89B05C02F3F19F00196A11DB11D3FBFBE
:1002A000BA2FA92F982F8827BC01CD01620F711D8D
:1002B000811D911D42E0660F771F881F991F4A9587
:1002C000D1F708958F929F92AF92BF92CF92DF9213
:1002D000EF92FF920E943D014B015C0180EDC82E20
:1002E00087E0D82EE12CF12C0E943D016819790994
:1002F0008A099B09683E734081059105A8F321E0B6
:10030000C21AD108E108F10888EE880E83E0981E31
:10031000A11CB11CC114D104E104F10429F7FF9020
:10032000EF90DF90CF90BF90AF909F908F90089507
:10033000AF92BF92CF92DF92EF92FF920F931F93F3
:10034000CF93DF936C017B018B01040F151FEB0131
:100350005E01AE18BF08C017D10759F06991D601E8
:10036000ED91FC910190F081E02DC6010995892B5A
:1003700079F7C501DF91CF911F910F91FF90EF9019
:10038000DF90CF90BF90AF900895089590E080E007
:100390000895FC0101900020E9F73197AF01481B57
:1003A000590BBC0185E192E00C9498018F929F92C9
:1003B000AF92BF920F931F93CF93DF93CDB7DEB76A
:1003C000A1970FB6F894DEBF0FBECDBF19A2423081
:1003D00008F44AE08E010F5D1F4F842E912CB12C42
:1003E000A12CA50194010E944307E62FB901CA017F
:1003F000EA30F4F4E05DD801EE938D01232B242B39
:10040000252B79F790E080E0109719F0CD010E943C
:10041000C901A1960FB6F894DEBF0FBECDBFDF9124
:10042000CF911F910F91BF90AF909F908F900895A3
:10043000E95CE1CF0C94C901CF93DF93EC0160E05C
:100440008E810E94FD0061E08E810E94FD0060E0CF
:100450008E810E94FD008BE891E00197F1F7DF911A
:10046000CF910895CF92DF92EF92FF920F931F9357
:10047000CF93DF936C017C0187E0E80EF11CD0E0A4
:10048000C0E0062F10E0B8010C2E02C075956795EC
:100490000A94E2F76170F70181917F010E94FD00EB
:1004A0002196C430D10579F7C601DF91CF911F9114
:1004B0000F91FF90EF90DF90CF900C941C02CF92A1
:1004C000DF92EF92FF920F931F93CF93DF93EC0194
:1004D000F62E642F8C810E94FD008D818F3F19F0D4
:1004E00060E00E94FD000F2D10E08F8584FF25C085
:1004F0006E0187E0C80ED11CF12CE12CB8010E2C46
:1005000002C0759567950A94E2F76170F6018191D2
:100510006F010E94FD00FFEFEF1AFF0A88E0E81666
:10052000F10461F7CE01DF91CF911F910F91FF9000
:10053000EF90DF90CF900C941C02B80184E0759589
:1005400067958A95E1F7CE010E9432026F2DCE01A8
:10055000DF91CF911F910F91FF90EF90DF90CF909F
:100560000C94320240E0682F85E192E00C945F0227
:1005700081E00E94B2028BE39FE10197F1F70895B9
:10058000CF93DF93823029F4909124029860909366
:100590002402809328021092290280E480932A0288
:1005A00080E180932B0280E580932C0280911902D8
:1005B0000E948C0080911A028F3F11F00E948C00E3
:1005C00080911B020E948C00C5E1D2E09E01255162
:1005D00032408091240284FD0AC084E090E021969C
:1005E000281739073CF48E810E948C00EFCF88E0F9
:1005F00090E0F5CF8BE39DE00197F1F760E080910B
:1006000019020E94FD0060E080911B020E94FD0023
:1006100080911A028F3F19F060E00E94FD008091E6
:10062000240284FD34C063E085E192E00E9432023E
:10063000CBE4D6E4CE010197F1F763E085E192E0E7
:100640000E9432022197F1F763E085E192E00E9477
:10065000320283E592E00197F1F762E085E192E0F2
:100660000E9432028091240280620E94B20284E0E1
:10067000809325028CE00E94B2020E94B80282E0C0
:100680008093260286E0DF91CF910C94B2028062C3
:100690000E94B2028BE496E40197F1F78091240264
:1006A00080620E94B20283E592E00197F1F78091A7
:1006B000240280620E94B202D5CF9091280289174D
:1006C00010F08FEF890FE82FF0E0EB5EFD4F84898B
:1006D00080680C94B20241E00E945F0281E090E0E9
:1006E00008954F925F926F927F928F929F92AF92F6
:1006F000BF92CF92DF92EF92FF920F931F93CF930F
:10070000DF936B017C01B42EAC019B010E94AB090D
:100710008823A1F08CE091E0DF91CF911F910F91A0
:10072000FF90EF90DF90CF90BF90AF909F908F9011
:100730007F906F905F904F900C94C9012601370114
:10074000E89477F82FEF3FEF4FE75FE7C301B2017F
:100750000E94AB0981110DC02FEF3FEF4FE75FE71C
:10076000C301B2010E94E10718161CF480E191E078
:10077000D3CF2FEF3FEF4FE75FE4C701B6010E94F1
:10078000390918161CF484E191E0C6CF2FEF3FEF32
:100790004FE75FECC701B6010E94E10787FDF3CF89
:1007A00020E030E0A901C701B6010E94E107D0E0D6
:1007B000C0E087FF0CC041E06DE285E192E00E945D
:1007C0005F02F7FAF094F7F8F094C1E0D0E01B2D47
:1007D00060E070E080E09FE300E020E030E040E295
:1007E00051E40E94E60721E0200F01E02B15A8F359
:1007F000A70196010E9475074B015C010E945808F1
:100800006B017C010E9487089B01AC01C501B4010A
:100810000E9474074B015C014AE0C701B6010E94C7
:10082000D6017C01219641E06EE285E192E00E94D2
:100830005F02EC0EFD1E115018F120E030E040E2A6
:1008400051E4C501B4010E943E092B013C010E9404
:1008500058084B01B12CA12C4AE0C501B4010E94FB
:10086000D601E80EF91EC501B4010E9487089B015C
:10087000AC01C301B2010E9474074B015C01DBCFE4
:10088000C701DF91CF911F910F91FF90EF90DF9003
:10089000CF90BF90AF909F908F907F906F905F9020
:1008A0004F9008951F920F920FB60F9211242F931D
:1008B0003F938F939F93AF93BF9380910D0290913D
:1008C0000E02A0910F02B091100230910C0223E0B1
:1008D000230F2D3758F50196A11DB11D20930C0251
:1008E00080930D0290930E02A0930F02B09310021A
:1008F0008091110290911202A0911302B091140202
:100900000196A11DB11D8093110290931202A09334
:100910001302B0931402BF91AF919F918F913F91B9
:100920002F910F900FBE0F901F90189526E8230F60
:100930000296A11DB11DD2CF789484B5826084BD8A
:1009400084B5816084BD85B5826085BD85B58160D3
:1009500085BD80916E00816080936E001092810051
:10096000809181008260809381008091810081600C
:1009700080938100809180008160809380008091CD
:10098000B10084608093B1008091B0008160809359
:10099000B00080917A00846080937A0080917A0020
:1009A000826080937A0080917A00816080937A00DF
:1009B00080917A00806880937A001092C10082E072
:1009C0000E94C00286E00E948C0087E00E948C009A
:1009D00088E00E948C008AE00E948C008DE00E94DA
:1009E0008C0089E00E948C0061E087E00E94FD009D
:1009F00060E086E00E94FD0060E088E00E94FD006B
:100A000061E08AE00E94FD0060E08DE00E94FD0050
:100A100060E089E00E94FD000E94B80288E191E058
:100A20000E941A0281E00E945D0385E291E00E942B
:100A30001A020E9462018EE00E942B011C0124E632
:100A400030E0DC010E94B0092FEF33E040E050E0DD
:100A50000E94240769017A01E9018FE00E942B01BD
:100A6000BC01990F880B990B0E94890820E030E0A7
:100A700040EA50E40E943E0920E030EC4FE754E4A5
:100A80000E94E60720E030E040E250E40E94740754
:100A900024EA30E74DE35EE30E94E6074B015C0188
:100AA00080E10E942B018C0161E08AE00E94FD0040
:100AB00060E08DE00E94FD0060E088E00E94FD00A3
:100AC00060E086E00E94FD0061E087E00E94FD009A
:100AD00060E089E00E94FD00C531D10514F561E0B8
:100AE00088E00E94FD0060E08AE00E94FD0061E075
:100AF00089E00E94FD000E94B80280E00E945D0330
:100B000082E391E00E941A0281E00E945D038EE37D
:100B100091E00E941A020E94620160E089E00E9456
:100B2000FD0020E030E040E050E4C501B4010E9447
:100B30003909181654F560E087E00E94FD0061E075
:100B400088E00E94FD0060E08AE00E94FD0061E014
:100B500089E00E94FD000E94B80280E00E945D03CF
:100B600089E491E00E941A0281E00E945D0386E51B
:100B700091E00E941A020E94620180E090E0892BBD
:100B800009F459CF0E94000056CFB801110F880B0D
:100B9000990B0E94890820E030E040EA50E40E946E
:100BA0003E0920E030EC4FE754E40E94E60720E0E5
:100BB00030E048EC52E40E943E092B013C0120E069
:100BC00030E044E352E40E94390987FD28C020E068
:100BD00030E040E752E4C301B2010E94E10787FF21
:100BE0001EC061E086E00E94FD0060E08AE00E9495
:100BF000FD0061E08DE00E94FD000E94B80280E0EF
:100C00000E945D0381E691E00E941A0281E00E9449
:100C10005D038BE691E00E941A020E94620120E0CF
:100C200030E040E752E4C301B2010E94390987FD78
:100C300020C061E086E00E94FD0060E087E00E9445
:100C4000FD0061E088E00E94FD0060E08AE00E9413
:100C5000FD0060E08DE00E94FD0061E089E00E94FF
:100C6000FD000E94B80280E00E945D0382E791E0EF
:100C700079CF0E94B80280E00E945D038CE791E08A
:100C80000E941A024AE0C701B601F7FE0EC041E019
:100C90006DE285E192E00E945F0266277727CB0133
:100CA0006C197D098E099F094AE00E94D60185E8EA
:100CB00091E00E941A0281E00E945D0387E891E0C2
:100CC000C035D105B4F48FE891E0CC33D1058CF474
:100CD00087E991E0C832D10564F48FE991E0C4312D
:100CE000D1053CF487EA91E01C161D0614F08FEA4A
:100CF00091E00E941A020E9462010E94B80280E004
:100D00000E945D0387EB91E00E941A02B101330C4F
:100D1000880B990B0E94890820E030E040EA50E4FB
:100D20000E943E0920E030EC4FE754E40E94E607C1
:100D300042E050E00E9471038DEB91E00E941A02A4
:100D400081E00E945D038FEB91E00E941A0242E075
:100D500050E0C501B4010E94710384EC91E00E944F
:100D60001A020E9462010E94B80280E00E945D03A4
:100D700086EC91E00E941A0241E050E0C301B2010A
:100D80000E94710341E06FED85E192E00E945F02F5
:100D90008CEC91E00E941A0281E00E945D0386E0E3
:100DA0000E94D400892B21F18EEC91E00E941A025E
:100DB0000E9462010E94B80280E00E945D0387E009
:100DC0000E94D400892BB9F080EE91E00E941A02B3
:100DD00081E00E945D0320E030E044E352E4C3017F
:100DE000B2010E94390987FD09C084EF91E0C1CEAC
:100DF00087ED91E0DBCF8AEE91E0E8CF8CEF91E0D8
:100E000065970CF4B6CE84E092E0B3CEE5E1F2E073
:100E10001382128284E091E0918380838CE084834A
:100E20008FEF85838BE0868385E0878384E08087EE
:100E300083E0818782E08287138614861586168672
:100E4000178681E00C94C002052E97FB1EF40094D7
:100E50000E943B0757FD07D00E94430707FC03D0C1
:100E60004EF40C943B0750954095309521953F4F9B
:100E70004F4F5F4F089590958095709561957F4F86
:100E80008F4F9F4F0895A1E21A2EAA1BBB1BFD0195
:100E90000DC0AA1FBB1FEE1FFF1FA217B307E40759
:100EA000F50720F0A21BB30BE40BF50B661F771FB1
:100EB000881F991F1A9469F7609570958095909591
:100EC0009B01AC01BD01CF010895A29FB001B39F6A
:100ED000C001A39F700D811D1124911DB29F700D43
:100EE000811D1124911D08955058BB27AA270E94E7
:100EF0008C070C94FF080E94F10838F00E94F80853
:100F000020F039F49F3F19F426F40C94EE080EF407
:100F1000E095E7FB0C94E808E92F0E94100958F3CC
:100F2000BA17620773078407950720F079F4A6F5CE
:100F30000C9432090EF4E0950B2EBA2FA02D0B0164
:100F4000B90190010C01CA01A0011124FF27591B0E
:100F500099F0593F50F4503E68F11A16F040A22F14
:100F6000232F342F4427585FF3CF46953795279585
:100F7000A795F0405395C9F77EF41F16BA0B620B84
:100F8000730B840BBAF09150A1F0FF0FBB1F661FCB
:100F9000771F881FC2F70EC0BA0F621F731F841F0E
:100FA00048F4879577956795B795F7959E3F08F034
:100FB000B0CF9395880F08F09927EE0F97958795F6
:100FC00008950E94C40808F481E008950E94FA0779
:100FD0000C94FF080E94F80858F00E94F10840F0B5
:100FE00029F45F3F29F00C94E80851110C9433095F
:100FF0000C94EE080E94100968F39923B1F355236D
:1010000091F3951B550BBB27AA276217730784071B
:1010100038F09F5F5F4F220F331F441FAA1FA9F3B1
:1010200035D00E2E3AF0E0E832D091505040E6959F
:10103000001CCAF72BD0FE2F29D0660F771F881F00
:10104000BB1F261737074807AB07B0E809F0BB0BF3
:10105000802DBF01FF2793585F4F3AF09E3F510507
:1010600078F00C94E8080C9433095F3FE4F3983E61
:10107000D4F3869577956795B795F7959F5FC9F7F0
:10108000880F911D9695879597F90895E1E0660F71
:10109000771F881FBB1F621773078407BA0720F0EA
:1010A000621B730B840BBA0BEE1F88F7E095089553
:1010B0000E94180988F09F5798F0B92F9927B751C7
:1010C000B0F0E1F0660F771F881F991F1AF0BA95EC
:1010D000C9F714C0B13091F00E943209B1E008950F
:1010E0000C943209672F782F8827B85F39F0B93F01
:1010F000CCF3869577956795B395D9F73EF490959F
:101100008095709561957F4F8F4F9F4F0895E8941C
:1011100009C097FB3EF490958095709561957F4F3F
:101120008F4F9F4F9923A9F0F92F96E9BB279395ED
:10113000F695879577956795B795F111F8CFFAF4FD
:10114000BB0F11F460FF1BC06F5F7F4F8F4F9F4F2E
:1011500016C0882311F096E911C0772321F09EE88C
:10116000872F762F05C0662371F096E8862F70E0F2
:1011700060E02AF09A95660F771F881FDAF7880FCC
:101180009695879597F90895990F0008550FAA0B22
:10119000E0E8FEEF16161706E807F907C0F012168A
:1011A0001306E407F50798F0621B730B840B950B8D
:1011B00039F40A2661F0232B242B252B21F40895E2
:1011C0000A2609F4A140A6958FEF811D811D08957F
:1011D00097F99F6780E870E060E008959FEF80ECEA
:1011E000089500240A94161617061806090608958D
:1011F00000240A9412161306140605060895092EF3
:101200000394000C11F4882352F0BB0F40F4BF2B61
:1012100011F460FF04C06F5F7F4F8F4F9F4F0895A1
:1012200057FD9058440F551F59F05F3F71F0479597
:10123000880F97FB991F61F09F3F79F0879508957C
:10124000121613061406551FF2CF4695F1DF08C09B
:10125000161617061806991FF1CF869571056105B8
:1012600008940895E894BB2766277727CB0197F960
:1012700008950E94C40808F48FEF08950E94510950
:101280000C94FF080E94F10838F00E94F80820F042
:10129000952311F00C94E8080C94EE0811240C949A
:1012A00033090E94100970F3959FC1F3950F50E028
:1012B000551F629FF001729FBB27F00DB11D639F08
:1012C000AA27F00DB11DAA1F649F6627B00DA11DAE
:1012D000661F829F2227B00DA11D621F739FB00D54
:1012E000A11D621F839FA00D611D221F749F3327C4
:1012F000A00D611D231F849F600D211D822F762F5D
:101300006A2F11249F5750409AF0F1F088234AF039
:10131000EE0FFF1FBB1F661F771F881F91505040A5
:10132000A9F79E3F510580F00C94E8080C9433090E
:101330005F3FE4F3983ED4F3869577956795B7952C
:10134000F795E7959F5FC1F7FE2B880F911D969546
:10135000879597F908950E94C408880B990B089502
:101360000E946507B7FF0895821B930B0895EE0F47
:10137000FF1F0590F491E02D0994F894FFCF000031
:1013800000006B039801C601C5016E616E00696EB5
:1013900066006F766600534D4152542045562042F8
:1013A0004D530053797374656D2052656164790003
:1013B0004C4F5720424154544552590043484152E2
:1013C0004745204E4F57004F5645522043555252E5
:1013D000454E540053595354454D204F46460048FE
:1013E0004947482054454D500046414E204F4E003D
:1013F0004F5645522054454D500042415454455299
:10140000593A0025005B7C7C7C7C7C5D005B7C7CAD
:101410007C7C205D005B7C7C7C20205D005B7C7C98
:101420002020205D005B7C202020205D005B2020B0
:101430002020205D00566F6C743A00560043757290
:101440003A00410054656D703A00430046616E3ABF
:10145000204F4E200046616E3A204F4646005265AE
:101460006C61793A4F4E200052656C61793A4F4673
:1014700046005741524E494E47004C4F572042417B
:0A14800054004E4F524D414C000045
:107E0000112484B714BE81FFF0D085E080938100F7
:107E100082E08093C00088E18093C10086E0809377
:107E2000C20080E18093C4008EE0C9D0259A86E02C
:107E300020E33CEF91E0309385002093840096BBD3
:107E4000B09BFECF1D9AA8958150A9F7CC24DD24C4
:107E500088248394B5E0AB2EA1E19A2EF3E0BF2EE7
:107E6000A2D0813461F49FD0082FAFD0023811F036
:107E7000013811F484E001C083E08DD089C08234E0
:107E800011F484E103C0853419F485E0A6D080C0E4
:107E9000853579F488D0E82EFF2485D0082F10E0AE
:107EA000102F00270E291F29000F111F8ED06801E7
:107EB0006FC0863521F484E090D080E0DECF843638
:107EC00009F040C070D06FD0082F6DD080E0C81688
:107ED00080E7D80618F4F601B7BEE895C0E0D1E017
:107EE00062D089930C17E1F7F0E0CF16F0E7DF06D8
:107EF00018F0F601B7BEE89568D007B600FCFDCFD4
:107F0000A601A0E0B1E02C9130E011968C91119780
:107F100090E0982F8827822B932B1296FA010C0160
:107F200087BEE89511244E5F5F4FF1E0A038BF0790
:107F300051F7F601A7BEE89507B600FCFDCF97BE46
:107F4000E89526C08437B1F42ED02DD0F82E2BD052
:107F50003CD0F601EF2C8F010F5F1F4F84911BD097
:107F6000EA94F801C1F70894C11CD11CFA94CF0C13
:107F7000D11C0EC0853739F428D08EE10CD085E9AC
:107F80000AD08FE07ACF813511F488E018D01DD067
:107F900080E101D065CF982F8091C00085FFFCCF94
:107FA0009093C60008958091C00087FFFCCF809118
:107FB000C00084FD01C0A8958091C6000895E0E648
:107FC000F0E098E1908380830895EDDF803219F02E
:107FD00088E0F5DFFFCF84E1DECF1F93182FE3DFCA
:107FE0001150E9F7F2DF1F91089580E0E8DFEE27F6
:047FF000FF270994CA
:027FFE00040479
:00000001FF
